{
  "_format": "hh-sol-artifact-1",
  "contractName": "Demo1",
  "sourceName": "contracts/Demo1.sol",
  "abi": [
    {
      "inputs": [],
      "stateMutability": "nonpayable",
      "type": "constructor"
    },
    {
      "anonymous": false,
      "inputs": [
        {
          "indexed": true,
          "internalType": "address",
          "name": "_from",
          "type": "address"
        },
        {
          "indexed": false,
          "internalType": "uint256",
          "name": "_amount",
          "type": "uint256"
        },
        {
          "indexed": false,
          "internalType": "uint256",
          "name": "_timestamp",
          "type": "uint256"
        }
      ],
      "name": "Paid",
      "type": "event"
    },
    {
      "inputs": [],
      "name": "pay",
      "outputs": [],
      "stateMutability": "payable",
      "type": "function"
    },
    {
      "inputs": [
        {
          "internalType": "address payable",
          "name": "_to",
          "type": "address"
        }
      ],
      "name": "withdraw",
      "outputs": [],
      "stateMutability": "nonpayable",
      "type": "function"
    },
    {
      "stateMutability": "payable",
      "type": "receive"
    }
  ],
  "bytecode": "0x608060405234801561001057600080fd5b50336000806101000a81548173ffffffffffffffffffffffffffffffffffffffff021916908373ffffffffffffffffffffffffffffffffffffffff1602179055506103f8806100606000396000f3fe60806040526004361061002d5760003560e01c80631b9265b81461004157806351cff8d91461004b5761003c565b3661003c5761003a610074565b005b600080fd5b610049610074565b005b34801561005757600080fd5b50610072600480360381019061006d9190610225565b6100c6565b005b3373ffffffffffffffffffffffffffffffffffffffff167fdf9a51129930649214df58f542322c245372c6f2fa6fc3c9b40d927c597cd23034426040516100bc9291906102e3565b60405180910390a2565b8060008054906101000a900473ffffffffffffffffffffffffffffffffffffffff1673ffffffffffffffffffffffffffffffffffffffff163373ffffffffffffffffffffffffffffffffffffffff1614610155576040517f08c379a000000000000000000000000000000000000000000000000000000000815260040161014c906102c3565b60405180910390fd5b600073ffffffffffffffffffffffffffffffffffffffff168173ffffffffffffffffffffffffffffffffffffffff1614156101c5576040517f08c379a00000000000000000000000000000000000000000000000000000000081526004016101bc906102a3565b60405180910390fd5b8173ffffffffffffffffffffffffffffffffffffffff166108fc479081150290604051600060405180830381858888f1935050505015801561020b573d6000803e3d6000fd5b505050565b60008135905061021f816103ab565b92915050565b60006020828403121561023757600080fd5b600061024584828501610210565b91505092915050565b600061025b60128361030c565b915061026682610359565b602082019050919050565b600061027e60168361030c565b915061028982610382565b602082019050919050565b61029d8161034f565b82525050565b600060208201905081810360008301526102bc8161024e565b9050919050565b600060208201905081810360008301526102dc81610271565b9050919050565b60006040820190506102f86000830185610294565b6103056020830184610294565b9392505050565b600082825260208201905092915050565b60006103288261032f565b9050919050565b600073ffffffffffffffffffffffffffffffffffffffff82169050919050565b6000819050919050565b7f696e636f72726563742061646472657373210000000000000000000000000000600082015250565b7f796f7520617265206e6f7420616e206f776e7265722100000000000000000000600082015250565b6103b48161031d565b81146103bf57600080fd5b5056fea2646970667358221220993f03027741316032b8b682bb1db4ceeb593a1b544a8228ab18f849bf68acf964736f6c63430008040033",
  "linkReferences": {},
  "deployedLinkReferences": {}
}