{
  "_format": "hh-sol-artifact-1",
  "contractName": "Demo",
  "sourceName": "contracts/lesson6.sol",
  "abi": [
    {
      "stateMutability": "payable",
      "type": "fallback"
    },
    {
      "inputs": [],
      "name": "balance",
      "outputs": [
        {
          "internalType": "uint256",
          "name": "",
          "type": "uint256"
        }
      ],
      "stateMutability": "view",
      "type": "function"
    },
    {
      "inputs": [],
      "name": "getBalance",
      "outputs": [
        {
          "internalType": "uint256",
          "name": "balance",
          "type": "uint256"
        }
      ],
      "stateMutability": "view",
      "type": "function"
    },
    {
      "inputs": [],
      "name": "getMessage",
      "outputs": [
        {
          "internalType": "string",
          "name": "",
          "type": "string"
        }
      ],
      "stateMutability": "view",
      "type": "function"
    },
    {
      "inputs": [],
      "name": "pay",
      "outputs": [],
      "stateMutability": "payable",
      "type": "function"
    },
    {
      "inputs": [
        {
          "internalType": "uint256",
          "name": "amount",
          "type": "uint256"
        }
      ],
      "name": "rate",
      "outputs": [
        {
          "internalType": "uint256",
          "name": "",
          "type": "uint256"
        }
      ],
      "stateMutability": "pure",
      "type": "function"
    },
    {
      "inputs": [
        {
          "internalType": "string",
          "name": "newMessage",
          "type": "string"
        }
      ],
      "name": "setMessage",
      "outputs": [
        {
          "internalType": "string",
          "name": "",
          "type": "string"
        }
      ],
      "stateMutability": "nonpayable",
      "type": "function"
    },
    {
      "stateMutability": "payable",
      "type": "receive"
    }
  ],
  "bytecode": "0x60806040526040518060400160405280600581526020017f68656c6c6f0000000000000000000000000000000000000000000000000000008152506000908051906020019061004f929190610062565b5034801561005c57600080fd5b50610166565b82805461006e90610105565b90600052602060002090601f01602090048101928261009057600085556100d7565b82601f106100a957805160ff19168380011785556100d7565b828001600101855582156100d7579182015b828111156100d65782518255916020019190600101906100bb565b5b5090506100e491906100e8565b5090565b5b808211156101015760008160009055506001016100e9565b5090565b6000600282049050600182168061011d57607f821691505b6020821081141561013157610130610137565b5b50919050565b7f4e487b7100000000000000000000000000000000000000000000000000000000600052602260045260246000fd5b6107ae806101756000396000f3fe6080604052600436106100595760003560e01c806312065fe0146100625780631b9265b81461008d578063368b877214610097578063b69ef8a8146100d4578063ce6d41de146100ff578063e7ee6ad61461012a57610060565b3661006057005b005b34801561006e57600080fd5b50610077610167565b60405161008491906104d7565b60405180910390f35b61009561016f565b005b3480156100a357600080fd5b506100be60048036038101906100b99190610403565b61018a565b6040516100cb91906104b5565b60405180910390f35b3480156100e057600080fd5b506100e9610235565b6040516100f691906104d7565b60405180910390f35b34801561010b57600080fd5b5061011461023b565b60405161012191906104b5565b60405180910390f35b34801561013657600080fd5b50610151600480360381019061014c9190610444565b6102cd565b60405161015e91906104d7565b60405180910390f35b600047905090565b34600160008282546101819190610564565b92505081905550565b606081600090805190602001906101a29291906102e3565b50600080546101b090610660565b80601f01602080910402602001604051908101604052809291908181526020018280546101dc90610660565b80156102295780601f106101fe57610100808354040283529160200191610229565b820191906000526020600020905b81548152906001019060200180831161020c57829003601f168201915b50505050509050919050565b60015481565b60606000805461024a90610660565b80601f016020809104026020016040519081016040528092919081815260200182805461027690610660565b80156102c35780601f10610298576101008083540402835291602001916102c3565b820191906000526020600020905b8154815290600101906020018083116102a657829003601f168201915b5050505050905090565b60006003826102dc91906105ba565b9050919050565b8280546102ef90610660565b90600052602060002090601f0160209004810192826103115760008555610358565b82601f1061032a57805160ff1916838001178555610358565b82800160010185558215610358579182015b8281111561035757825182559160200191906001019061033c565b5b5090506103659190610369565b5090565b5b8082111561038257600081600090555060010161036a565b5090565b600061039961039484610517565b6104f2565b9050828152602081018484840111156103b157600080fd5b6103bc84828561061e565b509392505050565b600082601f8301126103d557600080fd5b81356103e5848260208601610386565b91505092915050565b6000813590506103fd81610761565b92915050565b60006020828403121561041557600080fd5b600082013567ffffffffffffffff81111561042f57600080fd5b61043b848285016103c4565b91505092915050565b60006020828403121561045657600080fd5b6000610464848285016103ee565b91505092915050565b600061047882610548565b6104828185610553565b935061049281856020860161062d565b61049b81610750565b840191505092915050565b6104af81610614565b82525050565b600060208201905081810360008301526104cf818461046d565b905092915050565b60006020820190506104ec60008301846104a6565b92915050565b60006104fc61050d565b90506105088282610692565b919050565b6000604051905090565b600067ffffffffffffffff82111561053257610531610721565b5b61053b82610750565b9050602081019050919050565b600081519050919050565b600082825260208201905092915050565b600061056f82610614565b915061057a83610614565b9250827fffffffffffffffffffffffffffffffffffffffffffffffffffffffffffffffff038211156105af576105ae6106c3565b5b828201905092915050565b60006105c582610614565b91506105d083610614565b9250817fffffffffffffffffffffffffffffffffffffffffffffffffffffffffffffffff0483118215151615610609576106086106c3565b5b828202905092915050565b6000819050919050565b82818337600083830152505050565b60005b8381101561064b578082015181840152602081019050610630565b8381111561065a576000848401525b50505050565b6000600282049050600182168061067857607f821691505b6020821081141561068c5761068b6106f2565b5b50919050565b61069b82610750565b810181811067ffffffffffffffff821117156106ba576106b9610721565b5b80604052505050565b7f4e487b7100000000000000000000000000000000000000000000000000000000600052601160045260246000fd5b7f4e487b7100000000000000000000000000000000000000000000000000000000600052602260045260246000fd5b7f4e487b7100000000000000000000000000000000000000000000000000000000600052604160045260246000fd5b6000601f19601f8301169050919050565b61076a81610614565b811461077557600080fd5b5056fea2646970667358221220a451e51e54dac293ab9bef51c69f6d965468eb2fdcbceb82cf083f66b0d3d5f864736f6c63430008040033",
  "linkReferences": {},
  "deployedLinkReferences": {}
}